:040000000DEF00F010
:0400080005EF34F0DC
:06001800FF001EEF36F0B0
:10400000004465766963652054656D7065726174FE
:1040100075726520696E20446567433A20252E320B
:104020006643200D0A004465766963652054656D1A
:10403000706572617475726520696E2044656746AB
:104040003A20252E326646200D0A005374617274A0
:104050002041444320636F6E76657274200D0A0020
:104060002D2D2D2D2D200D0A00696E66006E616EBE
:104070000000000E0501816F36C582F537C583F556
:1040800038C584F539C585F585BF4BEF20F049EF7C
:1040900020F05FEF20F0010E816F82C503F583C52C
:1040A00004F584C505F585C506F53AEC36F003C57B
:1040B00082F504C583F505C584F506C585F5000EB2
:1040C0000501876F000E866FCAC571F5CBC572F505
:1040D0008151D8B46EEF20F070EF20F084EF20F023
:1040E0008151D8A476EF20F078EF20F07EEF20F019
:1040F000000E676F2B0E666F82EF20F0000E676F69
:104100002D0E666F66C581F582C503F583C504F57E
:1041100084C505F585C506F58EEC30F00304041062
:10412000D8A495EF20F097EF20F0CAEF20F005011A
:104130008151D8B49EEF20F0A0EF20F0A9EF20F03D
:1041400081C500F67107D8A07207000E876F010EB7
:10415000866F000E8625036E060E8721046E690E9B
:10416000056E400E066EB9EC35F00501FD0E7127A7
:10417000FF0E722334C515F535C516F5000E176E02
:10418000060E186E71C519F572C51AF548EC34F0B3
:1041900047EF25F082C503F583C504F584C505F511
:1041A00085C506F58EEC30F003500410D8A4DBEF83
:1041B00020F0DDEF20F010EF21F005018151D8B49F
:1041C000E4EF20F0E6EF20F0EFEF20F081C500F6FD
:1041D0007107D8A07207000E876F010E866F000E60
:1041E0008625036E060E8721046E6D0E056E400E49
:1041F000066EB9EC35F00501FD0E7127FF0E722336
:1042000034C515F535C516F5000E176E060E186E79
:1042100071C519F572C51AF548EC34F047EF25F071
:10422000000E0501886F000E896F800E8A6F3F0EA9
:104230008B6F000E706F000E6F6F82C503F583C524
:1042400004F584C505F585C506F5000E076E000E5C
:10425000086E000E096E000E0A6E67EC33F0D8B0DF
:1042600034EF21F036EF21F015EF22F043EF21F08B
:1042700073C588F574C589F575C58AF576C58BF55E
:1042800005016F4B702B88C503F589C504F58AC5F8
:1042900005F58BC506F5000E076E000E086E200EA4
:1042A000096E410E0A6EA8EC27F003C573F504C52C
:1042B00074F505C575F506C576F505017351825D82
:1042C000036E74518359046E75518459056E76518D
:1042D0008559066EB9EC34F006BE7AEF21F006502F
:1042E0000510041009E1020E035CD8A07AEF21F05A
:1042F0007CEF21F038EF21F073C51CF574C51DF576
:1043000075C51EF576C51FF582C520F583C521F557
:1043100084C522F585C523F50CEC30F0D8A093EFC9
:1043200021F095EF21F038EF21F005018851825DF1
:10433000036E89518359046E8A518459056E8B51DD
:104340008559066EB9EC34F006BEB4EF21F0065084
:104350000510041007E1020E035CD8B0B2EF21F0A3
:10436000B4EF21F0FCEF21F088C582F589C583F513
:104370008AC584F58BC585F515EF22F088C503F550
:1043800089C504F58AC505F58BC506F5000E076ECF
:10439000000E086E200E096E410E0A6EBDEC29F06B
:1043A00003C588F504C589F505C58AF506C58BF5ED
:1043B00005016F07D8A070078851825D036E89518F
:1043C0008359046E8A518459056E8B518559066E46
:1043D000B9EC34F006BEFAEF21F0065005100410D7
:1043E00007E1020E035CD8B0F8EF21F0FAEF21F0FC
:1043F000FCEF21F0B4EF21F082C51CF583C51DF55B
:1044000084C51EF585C51FF588C520F589C521F52C
:104410008AC522F58BC523F50CEC30F0D8A013EF3C
:1044200022F015EF22F0BEEF21F03AC569F569C51B
:104430006AF50501CDBF1FEF22F021EF22F027EF33
:1044400022F0CCC562F5CDC563F52BEF22F0000E4E
:10445000636F060E626F62C56DF563C56EF56D4BD9
:104460006E2B660E6A19D8A438EF22F03AEF22F0CC
:104470005AEF22F070BF41EF22F03FEF22F04DEFF4
:1044800022F0000E886F000E896F800E8A6F3F0E3B
:104490008B6F000E706F000E6F6F670E6919D8B4C6
:1044A00054EF22F056EF22F05AEF22F06F516D27B1
:1044B00070516E23000E786F000E776F82C579F50C
:1044C00083C57AF584C57BF585C57CF588C573F50C
:1044D00089C574F58AC575F58BC576F5EBEF22F0C5
:1044E00079C503F57AC504F57BC505F57CC506F5E8
:1044F00088C507F589C508F58AC509F58BC50AF58C
:10450000BDEC29F003C51CF504C51DF505C51EF558
:1045100006C51FF5CBEC2CF01CC57DF51DC57EF541
:104520001EC57FF51FC580F57DC503F57EC504F565
:104530007FC505F580C506F589EC2FF003C56BF541
:1045400004C56CF579C52CF57AC52DF57BC52EF51E
:104550007CC52FF57DC507F57EC508F57FC509F536
:1045600080C50AF588C503F589C504F58AC505F532
:104570008BC506F5A8EC27F003C530F504C531F569
:1045800005C532F506C533F596EC35F02CC579F541
:104590002DC57AF52EC57BF52FC57CF588C503F5AD
:1045A00089C504F58AC505F58BC506F5000E076EAD
:1045B000000E086E200E096E410E0A6EBDEC29F049
:1045C00003C588F504C589F505C58AF506C58BF5CB
:1045D0000501774B782B6D51775D7851800A3B6EE2
:1045E0006E51800A3B58D8A0F8EF22F0FAEF22F083
:1045F00070EF22F088C503F589C504F58AC505F575
:104600008BC506F5000E076E000E086EA00E096E33
:10461000400E0A6EA8EC27F003C57DF504C57EF5B3
:1046200005C57FF506C580F579C51CF57AC51DF56C
:104630007BC51EF57CC51FF57DC520F57EC521F522
:104640007FC522F580C523F50CEC30F0D8B02BEFF8
:1046500023F02DEF23F038EF23F0000E05017D6FDE
:10466000000E7E6F000E7F6F000E806F61EF23F0F3
:1046700079C503F57AC504F57BC505F57CC506F556
:104680007DC507F57EC508F57FC509F580C50AF526
:1046900067EC33F0D8A04FEF23F051EF23F061EF38
:1046A00023F005016BB157EF23F059EF23F061EFD1
:1046B00023F0000E7D6F000E7E6F000E7F6F000EE8
:1046C000806F82C51CF583C51DF584C51EF585C5A3
:1046D0001FF57DC520F57EC521F57FC522F580C576
:1046E00023F548EC25F01CC579F51DC57AF51EC5E6
:1046F0007BF51FC57CF579C51CF57AC51DF57BC515
:104700001EF57CC51FF5000E076E000E086E200E0C
:10471000096E410E0A6E73C503F574C504F575C5BF
:1047200005F576C506F5A8EC27F003C520F504C508
:1047300021F505C522F506C523F50CEC30F0D8A00F
:10474000A4EF23F0A6EF23F0CFEF23F005016F4B8A
:10475000702B73C503F574C504F575C505F576C5ED
:1047600006F5000E076E000E086E200E096E410E53
:104770000A6EA8EC27F003C573F504C574F505C5EA
:1047800075F506C576F5660E05016A19D8A4CBEF56
:1047900023F0CDEF23F0CFEF23F06D4B6E2B73C5DD
:1047A00088F574C589F575C58AF576C58BF56FC52D
:1047B00060F570C561F5000E0501686F000E656F4C
:1047C000000E646F000E786F000E776FCDEF24F04F
:1047D00079C503F57AC504F57BC505F57CC506F5F5
:1047E00088C507F589C508F58AC509F58BC50AF599
:1047F000BDEC29F003C51CF504C51DF505C51EF566
:1048000006C51FF5CBEC2CF01CC57DF51DC57EF54E
:104810001EC57FF51FC580F57DC503F57EC504F572
:104820007FC505F580C506F589EC2FF004BE24EFA1
:1048300024F0045007E10A0E035CD8B022EF24F004
:1048400024EF24F034EF24F07DC503F57EC504F594
:104850007FC505F580C506F589EC2FF003C56BF51E
:1048600004C56CF539EF24F0000E05016C6F090EDC
:104870006B6F05016851D8A440EF24F042EF24F09B
:104880006AEF24F061BF49EF24F047EF24F06AEFAC
:1048900024F0000E8625D96E060E8721DA6E2E0EC4
:1048A000DF6E864B872B7107D8A07207010E686FE9
:1048B0006AEF24F0000E8625D96E060E8721DA6E87
:1048C000300EDF6E864B872B7107D8A07207640706
:1048D000D8A0650764516511D8A471EF24F073EF77
:1048E00024F05AEF24F0000E8625D96E060E87219B
:1048F000DA6E6B51300FDF6E864B872B7107D8A0B5
:10490000720779C52CF57AC52DF57BC52EF57CC5CA
:104910002FF57DC507F57EC508F57FC509F580C56E
:104920000AF588C503F589C504F58AC505F58BC563
:1049300006F5A8EC27F003C530F504C531F505C52B
:1049400032F506C533F596EC35F02CC579F52DC555
:104950007AF52EC57BF52FC57CF588C503F589C58D
:1049600004F58AC505F58BC506F5000E076E000E29
:10497000086E200E096E410E0A6EBDEC29F003C5CB
:1049800088F504C589F505C58AF506C58BF50501C9
:104990006007D8A06107774B782B6D51775D785110
:1049A000800A3B6E6E51800A3B58D8B0DAEF24F093
:1049B000DCEF24F0EAEF24F087BFE8EF24F0875122
:1049C00009E14B0E865DD8A0E8EF24F0EAEF24F071
:1049D000E8EF23F0000E786F4F0E776F000E77250B
:1049E000D96E060E7821DA6EDF6A000E3B6E060E77
:1049F0003C6E86513B5E87513C5A77513B24036E97
:104A000078513C20046E000E056E060E066E86C5BB
:104A100007F587C508F56EEC35F005018651775D21
:104A2000866F87517859876F8151D8A41AEF25F086
:104A30001DEF25F0010E1EEF25F0000E776F786B4D
:104A40008151D8B426EF25F028EF25F033EF25F07B
:104A50008607D8A08707000E8625D96E060E872107
:104A6000DA6E81C5DFF47751715F7851725B34C5BE
:104A700015F535C516F5000E8625176E060E87212D
:104A8000186E71C519F572C51AF548EC34F01200AC
:104A90001F50800B286E1F501F242A6E1EAE53EF2E
:104AA00025F055EF25F056EF25F02A802A50D8B48E
:104AB0005CEF25F05EEF25F073EF25F02A28D8A4EF
:104AC00064EF25F066EF25F06EEF25F0000E1C6E0A
:104AD000000E1D6E000E1E6E000E1F6E1E8E000E4E
:104AE0001F6E7BEF25F0000E1C6E000E1D6E000E7B
:104AF0001E6E000E1F6E2350800B296E2850291841
:104B0000D8B485EF25F087EF25F088EF25F0288CC5
:104B100023502324296E22AE90EF25F092EF25F04A
:104B200093EF25F029802950D8B499EF25F09BEF19
:104B300025F0B0EF25F02928D8A4A1EF25F0A3EFA8
:104B400025F0ABEF25F0000E206E000E216E000E5A
:104B5000226E000E236E228E000E236EB8EF25F01B
:104B6000000E206E000E216E000E226E000E236ECF
:104B70002A50295CD8B0BFEF25F0C1EF25F0E8EF4F
:104B800025F028ACC6EF25F0C8EF25F0CAEF25F0D8
:104B9000800E281A2AC52BF529C52AF52BC529F51B
:104BA0001CC52BF520C51CF52BC520F51DC52BF507
:104BB00021C51DF52BC521F51EC52BF522C51EF5FA
:104BC0002BC522F51FC52BF523C51FF52BC523F5D6
:104BD000000E2B6E2A5029C524F5256A245E000E8E
:104BE000255A25BEFDEF25F0255009E11A0E245C5B
:104BF000D8A0FDEF25F0FFEF25F036EF26F01C5092
:104C00001D101E101F10D8A408EF26F00BEF26F081
:104C1000010E0CEF26F0000E2B6E000E1C6E000E27
:104C20001D6E000E1E6E000E1F6E29C52AF53FEF89
:104C300026F02BA01EEF26F020EF26F026EF26F020
:104C4000D8902B3001092B6E28EF26F0D8902B320C
:104C50001CA02DEF26F02FEF26F030EF26F02B8E44
:104C60001F341F321E321D321C322A2A29502A5C60
:104C7000D8A03DEF26F03FEF26F019EF26F028BC34
:104C800044EF26F046EF26F086EF26F02A50D8A40F
:104C90004CEF26F04EEF26F058EF26F0000E1C6E7B
:104CA000000E1D6E000E1E6E000E1F6EA7EF27F089
:104CB00020501C2621501D2222501E2223501F222C
:104CC0001FA065EF26F067EF26F013EF27F02BA06B
:104CD0006CEF26F06EEF26F074EF26F0D8902B30B4
:104CE00001092B6E76EF26F0D8902B321CA07BEFBB
:104CF00026F07DEF26F07EEF26F02B8E1F341F323C
:104D00001E321D321C322A2A13EF27F020501C5C61
:104D100021501D5822501E581F50800A246E2350C7
:104D2000800A2458D8B097EF26F099EF26F0C4EF08
:104D300026F01C50205C246E1D502158256E1E50FC
:104D40002258266E1F502358276EFF0E24241C6EF7
:104D5000FF0E25201D6EFF0E26201E6EFF0E272043
:104D60001F6E800E281A2B6C2B50D8A4BAEF26F099
:104D7000BCEF26F0CCEF26F0010E1C26000E1D2203
:104D80001E221F22CCEF26F020501C5E21501D5AFF
:104D900022501E5A23501F5A1C501D101E101F1047
:104DA000D8A4D5EF26F0D7EF26F00CEF27F02B5044
:104DB000D8A4DDEF26F0DFEF26F00CEF27F0000E91
:104DC0001C6E000E1D6E000E1E6E000E1F6EA7EFF5
:104DD00027F0D8901C361D361E361F362BAEF3EF4B
:104DE00026F0F5EF26F0F6EF26F01C802BA0FBEF67
:104DF00026F0FDEF26F001EF27F0D8802B3603EFE9
:104E000027F0D8902B362A50D8B409EF27F00BEFB3
:104E100027F00CEF27F02A061EAE11EF27F013EF54
:104E200027F0E9EF26F0000E296E2BAE1AEF27F0DF
:104E30001CEF27F034EF27F02BC524F57F0E241646
:104E4000D8B425EF27F027EF27F02BEF27F0010E3E
:104E5000296E34EF27F01CA030EF27F032EF27F057
:104E600034EF27F027EF27F02950D8B43AEF27F096
:104E70003CEF27F067EF27F0010E1C26000E1D22E5
:104E80001E221F221FA047EF27F049EF27F067EFF0
:104E900027F01CC524F51DC525F51EC526F51FC523
:104EA00027F52734273226322532243224C51CF533
:104EB00025C51DF526C51EF527C51FF52A28D8B41A
:104EC00064EF27F066EF27F067EF27F02A2A2A28F9
:104ED000D8B46DEF27F06FEF27F077EF27F02A5067
:104EE000D8A475EF27F077EF27F089EF27F0000EB1
:104EF0001C6E000E1D6E000E1E6E000E1F6E2A50E0
:104F0000D8A485EF27F087EF27F089EF27F0000E70
:104F1000286E2AA08EEF27F090EF27F093EF27F06E
:104F20001E8E94EF27F01E9ED8902A301F6E28AE5A
:104F30009CEF27F09EEF27F09FEF27F01F8E1CC5F8
:104F40001CF51DC51DF51EC51EF51FC51FF512005C
:104F50000650800B0F6E06500624156E05AEB3EF9B
:104F600027F0B5EF27F0B6EF27F015801550D8B42D
:104F7000BCEF27F0BEEF27F0D1EF27F01528D8A41B
:104F8000C4EF27F0C6EF27F0CEEF27F0000E036E38
:104F9000000E046E000E056E000E066E058ED9EF33
:104FA00027F0000E036E000E046E000E056E000E5C
:104FB000066E0A50800B0F1A0A500A24106E09AEB2
:104FC000E4EF27F0E6EF27F0E7EF27F0108010502E
:104FD000D8B4EDEF27F0EFEF27F002EF28F010281C
:104FE000D8A4F5EF27F0F7EF27F0FFEF27F0000E3A
:104FF000076E000E086E000E096E000E0A6E098E16
:105000000AEF28F0000E076E000E086E000E096E03
:10501000000E0A6E1050D8B410EF28F012EF28F0EE
:105020001AEF28F01550D8A418EF28F01AEF28F03E
:1050300024EF28F0000E036E000E046E000E056EC5
:10504000000E066EBCEF29F009500302F3C41AF5F6
:10505000F4C41BF51A50116E126A136A146A1B50BD
:10506000166E176A186A196A08500402F3C41AF512
:10507000F4C41BF51A501126000E1222132214221A
:105080001B501626000E172218221922075005025F
:10509000F3C41AF5F4C41BF51A501126000E12229F
:1050A000132214221B501626000E17221822192232
:1050B00013C514F512C513F511C512F5116A075081
:1050C0000402F3C41AF5F4C41BF51A5011261B5040
:1050D0001222000E1322000E142208500302F3C401
:1050E0001AF5F4C41BF51A5011261B501222000E9B
:1050F0001322000E142213C514F512C513F511C5A1
:1051000012F5116A07500302F3C41AF5F4C41BF533
:105110001A5011261B501222000E1322000E1422C8
:1051200009500402F3C41AF5F4C41BF51A501626EC
:105130001B501722000E1822000E192208500502DB
:10514000F3C41AF5F4C41BF51A5016261B50172287
:10515000000E1822000E192209500502F3C41AF598
:10516000F4C41BF51A500B6E1B500C6E0D6A0E6AC0
:105170000DC50EF50CC50DF50BC50CF50B6A0B50E6
:1051800016260C5017220D5018220E50192211C548
:105190000BF512C50CF513C50DF514C50EF5190E5A
:1051A000D7EF28F0D8900E320D320C320B32E82EA9
:1051B000D2EF28F00B5016260C5017220D50182253
:1051C0000E50192213C514F512C513F511C512F5A9
:1051D000116A105015C50BF50C6A0B26000E0C2237
:1051E000820E0B241A6EFF0E0C201B6E0DEF29F0A1
:1051F000D890163617361836193614AE02EF29F045
:1052000004EF29F005EF29F01680D89011361236F8
:10521000133614361A06D8A01B0618AE12EF29F062
:1052200014EF29F0F8EF28F0000E106E14AE1BEF0B
:1052300029F01DEF29F041EF29F0FF0E11140B6E3C
:10524000FF0E12140C6EFF0E13140D6E7F0E14144D
:105250000E6E0B500C100D100E10D8B432EF29F05A
:1052600034EF29F038EF29F0010E106E41EF29F0EC
:1052700016A03DEF29F03FEF29F041EF29F034EF80
:1052800029F01050D8B447EF29F049EF29F06DEF1D
:1052900029F0010E1626000E17221822192219A035
:1052A00054EF29F056EF29F06DEF29F016C50BF5F4
:1052B00017C50CF518C50DF519C50EF50E340E32CF
:1052C0000D320C320B320BC516F50CC517F50DC59A
:1052D00018F50EC519F51A4A1B2A1BBE78EF29F0DE
:1052E0001B5008E11A28D8A078EF29F07AEF29F0AE
:1052F00084EF29F0000E166E000E176E800E186EE9
:105300007F0E196EB2EF29F01BBE91EF29F01B50F2
:1053100006E11A04D8B08FEF29F091EF29F09DEF44
:1053200029F0000E166E000E176E000E186E000E9D
:10533000196E000E0F6EB2EF29F01AC515F5FF0EAB
:105340001616FF0E17167F0E1816000E191615A04A
:10535000ACEF29F0AEEF29F0AFEF29F0188ED8901E
:105360001530196E0F50191216C503F517C504F53F
:1053700018C505F519C506F512000650800B136E09
:10538000065006241A6E05AEC8EF29F0CAEF29F0C0
:10539000CBEF29F01A801A50D8B4D1EF29F0D3EF0F
:1053A00029F0E8EF29F01A28D8A4D9EF29F0DBEF8B
:1053B00029F0E3EF29F0000E036E000E046E000EDC
:1053C000056E000E066E058E000E066EF0EF29F0DB
:1053D000000E036E000E046E000E056E000E066ECB
:1053E0000A50800B131A0A500A241B6E09AEFBEFF9
:1053F00029F0FDEF29F0FEEF29F01B801B50D8B4F7
:1054000004EF2AF006EF2AF01BEF2AF01B28D8A49D
:105410000CEF2AF00EEF2AF016EF2AF0000E076EBE
:10542000000E086E000E096E000E0A6E098E000E48
:105430000A6E23EF2AF0000E076E000E086E000EB3
:10544000096E000E0A6E0750081009100A10D8A441
:105450002CEF2AF02EEF2AF046EF2AF0000E036E12
:10546000000E046E000E056E000E066E800E051214
:105470007F0E06121350061203C503F504C504F58A
:1054800005C505F506C506F589EF2BF01A50D8A419
:105490004CEF2AF04EEF2AF058EF2AF0000E036E80
:1054A000000E046E000E056E000E066E89EF2BF0E6
:1054B0001B501AC50BF50C6A0B5E000E0C5A7F0EC2
:1054C0000B24146E000E0C20156E03C50FF504C5D9
:1054D00010F505C511F506C512F5000E036E000E98
:1054E000046E000E056E000E066E000E166E000EA7
:1054F000176E000E186E000E196E000E1B6EB9EFBF
:105500002AF01B50D8B487EF2AF089EF2AF0A0EFD9
:105510002AF0D8900F36103611361236D89003364E
:1055200004360536063619AE98EF2AF09AEF2AF0BF
:105530009BEF2AF00380D8901636173618361936A6
:1055400007500F5C08501058095011580A50125853
:10555000D8A0ADEF2AF0AFEF2AF0B8EF2AF0198CFF
:1055600007500F5E0850105A0950115A0A50125A2B
:105570001B2A190E1B64BFEF2AF0C1EF2AF081EF3E
:105580002AF00F50101011101210D8B4CAEF2AF0E0
:10559000CCEF2AF0E4EF2AF01680E4EF2AF0D8905E
:1055A000033604360536063619AED9EF2AF0DBEF9E
:1055B0002AF0DCEF2AF00380D8901636173618361A
:1055C00019361406D8A0150605AEE9EF2AF0EBEF60
:1055D0002AF0CFEF2AF0000E1B6E19AEF2EF2AF080
:1055E000F4EF2AF018EF2BF0FF0E16140B6EFF0EDF
:1055F00017140C6EFF0E18140D6E7F0E19140E6E1C
:105600000B500C100D100E10D8B409EF2BF00BEF4F
:105610002BF00FEF2BF0010E1B6E18EF2BF003A0F9
:1056200014EF2BF016EF2BF018EF2BF00BEF2BF005
:105630001B50D8B41EEF2BF020EF2BF044EF2BF0D3
:10564000010E0326000E04220522062206A02BEFDF
:105650002BF02DEF2BF044EF2BF003C50BF504C519
:105660000CF505C50DF506C50EF50E340E320D32DE
:105670000C320B320BC503F50CC504F50DC505F551
:105680000EC506F5144A152A15BE4FEF2BF015501E
:1056900008E11428D8A04FEF2BF051EF2BF05CEF6E
:1056A0002BF0000E156E1468000E036E000E046ED3
:1056B000000E056E000E066E15BE69EF2BF015503C
:1056C00006E11404D8B067EF2BF069EF2BF077EF09
:1056D0002BF0000E156E000E146E000E036E000E01
:1056E000046E000E056E000E066E000E136E14C5DD
:1056F0001AF51AA07EEF2BF080EF2BF083EF2BF042
:10570000058E84EF2BF0059ED8901A30066E3AEF86
:105710002AF012008EC5D9F48FC5DAF4DEC4F6F48F
:10572000DDC4F7F4000EF86E0800F550250AD8A481
:105730009CEF2BF09EEF2BF0B4EF2CF08EC5D9F43C
:105740008FC5DAF4DE2A000EDD22000E0501CB6FD4
:10575000000ECA6FCAC5D0F5CC69CD698EC5D9F423
:105760008FC5DAF4DEC4F6F4DDC4F7F4000EF86E8B
:105770000800F5502E0AD8A4C0EF2BF0C2EF2BF092
:10578000D7EF2BF08EC5D9F48FC5DAF4DE2A000EE0
:10579000DD228EC509F58FC50AF590C50BF591C5BB
:1057A0000CF581EC31F009C5CCF50AC5CDF58EC5F7
:1057B000D9F48FC5DAF4DEC444F5DDC445F544C53B
:1057C000F6F445C5F7F4000EF86E0800F5C443F58D
:1057D000F6EF2BF0444A452A0FEF2CF06C0E436E87
:1057E0000FEF2CF0000E436E0FEF2CF043503D6E88
:1057F0003E6A3E50000AD8B400EF2CF0F2EF2BF0D6
:105800003D504C0AD8B4EAEF2BF02A0AD8B4EEEF98
:105810002BF00A0AD8B4EAEF2BF0F2EF2BF044C5D4
:10582000F6F445C5F7F4000EF86E0800F550660A68
:10583000D8A41DEF2CF01FEF2CF0ABEF2CF055EFA0
:105840002CF090C5D9F491C5DAF4DFC43DF5040E0F
:10585000DE26DFC43EF5000EDD223DC5D9F43EC58F
:10586000DAF4DEC43FF5DEC440F5DEC441F5DEC443
:1058700042F56AEF2CF090C5D9F491C5DAF4DFC493
:105880003DF5040EDE26DFC43EF5000EDD223DC5EB
:10589000D9F43EC5DAF4DEC43FF5DEC440F5DEC41B
:1058A00041F5DEC442F56AEF2CF043503D6E3E6A8E
:1058B0003E50000AD8B45FEF2CF06AEF2CF03D5058
:1058C0004C0AD8B43BEF2CF0200AD8B421EF2CF0CE
:1058D0006AEF2CF0010E44243D6E000E45203E6E12
:1058E0008EC5D9F48FC5DAF43DC5DEF43EC5DDF4CE
:1058F00093EF2CF08CC534F58DC535F53FC536F5E5
:1059000040C537F541C538F542C539F544C5F6F40B
:1059100045C5F7F4000EF86E0800F5C43AF539EC09
:1059200020F0CAEF2CF044C5F6F445C5F7F4000E9C
:10593000F86E0800F5503D6E3E6A3E50000AD8B43D
:10594000A4EF2CF0ABEF2CF03D50660AD8B47AEF00
:105950002CF0ABEF2CF08EC5D9F48FC5DAF4DE2A2B
:10596000000EDD22CAEF2CF08EC5D9F48FC5DAF413
:10597000DEC4F6F4DDC4F7F4000EF86E0800F5504E
:10598000056E066A8CC507F58DC508F5E8EC31F0A3
:10599000ABEF2CF01200BEC52CF5BFC52DF5C0C570
:1059A0002EF5C1C52FF51CC52CF51DC52DF51EC541
:1059B0002EF51FC52FF5810E206EFF0E216E2CC512
:1059C00022F52DC523F52EC524F52FC525F5180E76
:1059D000EFEF2CF0D8902532243223322232E82EF9
:1059E000EAEF2CF0225020242A6E000E21202B6E8C
:1059F0002BBE04EF2DF02B5009E1170E2A5CD8A026
:105A000004EF2DF006EF2DF010EF2DF01CC51CF566
:105A10001DC51DF51EC51EF51FC51FF5D3EF2DF0C5
:105A20002BBE15EF2DF017EF2DF087EF2DF02AC5C7
:105A300020F5FF0E216EFF0E226E7F0E236E000EEC
:105A4000246E206626EF2DF02EEF2DF02434243224
:105A5000233222322132202E21EF2DF021C526F5CE
:105A600022C527F523C528F524C529F526502C1471
:105A7000206E27502D14216E28502E14226E29508E
:105A80002F14236E2050211022102310D8A44BEF86
:105A90002DF04DEF2DF04FEF2DF006EF2DF02CC532
:105AA00020F52DC521F52EC522F52FC523F5200E95
:105AB0005FEF2DF0D8902332223221322032E82EAF
:105AC0005AEF2DF02050211022102310D8B46BEF84
:105AD0002DF06DEF2DF075EF2DF026502C26275070
:105AE0002D2228502E2229502F22261C206E271CC2
:105AF000216E281C226E291C236E20502C1621504A
:105B00002D1622502E1623502F16CBEF2DF02CC51C
:105B100020F52DC521F52EC522F52FC523F5200E24
:105B200097EF2DF0D8902332223221322032E82E06
:105B300092EF2DF02050211022102310D8A4A3EFB3
:105B40002DF0A5EF2DF0AFEF2DF0000E2C6E000E16
:105B50002D6E000E2E6E000E2F6ECBEF2DF0D89016
:105B60002C34206E2D34216E2E34226E2F34236E71
:105B70002050211022102310D8B4C1EF2DF0C3EF14
:105B80002DF0CBEF2DF0000E2C6E000E2D6E800E42
:105B90002E6EBF0E2F6E2CC51CF52DC51DF52EC506
:105BA0001EF52FC51FF512000B0E4B6E260E4A6E0A
:105BB0005E0EE82EFED74A2EFCD74B2EFAD74B0EA0
:105BC0000501986F400E996F97EC36F02DEC37F089
:105BD0003C0E56EC36F003C5CEF504C5CFF5CEC568
:105BE00003F5CFC504F5056ABCC506F5BDC507F5C7
:105BF000086A07BE0806ECEC34F003C54EF504C590
:105C00004FF505C550F54EC503F54FC504F550C514
:105C100005F5000E066E010E076E000E086E0DEC07
:105C200031F003C54EF504C54FF505C550F5BAC5AD
:105C30004AF5BBC54BF54C6A4BBE4C684E504A24E6
:105C40004E6E4F504B204F6E50504C20506E4EC5F4
:105C50004AF54FC54BF550C54CF54D6A4CBE4D68E5
:105C60004AC503F54BC504F54CC505F54DC506F50C
:105C7000010EAFEC2EF003C5C6F504C5C7F505C58A
:105C8000C8F506C5C9F5C6C503F5C7C504F5C8C539
:105C900005F5C9C506F5000E076E000E086E200E4C
:105CA000096E410E0A6EBDEC29F003C5C6F504C5A8
:105CB000C7F505C5C8F506C5C9F5010E0501986FFC
:105CC000400E996FC6C59AF5C7C59BF5C8C59CF52A
:105CD000C9C59DF597EC36F0660E076E660E086E28
:105CE000E60E096E3F0E0A6EC6C503F5C7C504F57C
:105CF000C8C505F5C9C506F5A8EC27F003C51CF510
:105D000004C51DF505C51EF506C51FF5000E206E60
:105D1000000E216E000E226E420E236E48EC25F01E
:105D20001CC59EF51DC59FF51EC5A0F51FC5A1F597
:105D3000260E0501986F400E996F9EC59AF59FC576
:105D40009BF5A0C59CF5A1C59DF597EC36F0600EBE
:105D50000501986F400E996F97EC36F012000B6EAC
:105D60000B50D8B4B6EF2EF0B8EF2EF0DAEF2EF0DD
:105D700006BEBFEF2EF0BDEF2EF0DAEF2EF003C51A
:105D800007F504C508F505C509F506C50AF5071E9A
:105D9000081E091E0A1E072A000E082209220A22CE
:105DA00007C50DF508C50EF509C50FF50AC510F5AF
:105DB000E2EF2EF003C50DF504C50EF505C50FF590
:105DC00006C510F50350041005100610D8A4EBEF1B
:105DD0002EF0EDEF2EF0F7EF2EF0000E036E000E1A
:105DE000046E000E056E000E066E88EF2FF0960E04
:105DF0000C6E01EF2FF00C2AD89010320F320E32B9
:105E00000D32000E0D14076E000E0E14086E000EFB
:105E10000F14096EFE0E10140A6E075008100910B8
:105E20000A10D8A416EF2FF018EF2FF0FBEF2EF08A
:105E300026EF2FF00C2A010E0D26000E0E220F2247
:105E40001022D89010320F320E320D32000E0D1487
:105E5000076E000E0E14086E000E0F14096EFF0E72
:105E600010140A6E0750081009100A10D8A43BEF4E
:105E70002FF03DEF2FF01AEF2FF045EF2FF00C062B
:105E8000D8900D360E360F3610360FBE4AEF2FF073
:105E90004CEF2FF054EF2FF0020E0C6052EF2FF06A
:105EA00054EF2FF03FEF2FF00CB059EF2FF05BEFD6
:105EB0002FF05CEF2FF00F9ED8900C320CC507F539
:105EC000086A096A0A6A07C50AF5096A086A076A58
:105ED00007500D1208500E1209500F120A501012DE
:105EE0000B50D8B476EF2FF078EF2FF080EF2FF033
:105EF00006BE7FEF2FF07DEF2FF080EF2FF0108E9A
:105F00000DC503F50EC504F50FC505F510C506F55D
:105F10001200053406340C6E0C50D8A492EF2FF00A
:105F200094EF2FF09EEF2FF0000E036E000E046E24
:105F3000000E056E000E066E0BEF30F003C507F580
:105F400004C508F505C509F506C50AF5200EAEEF2E
:105F50002FF0D8900A32093208320732E82EA9EF22
:105F60002FF007500B6E058EFF0E0316FF0E041662
:105F7000FF0E0516000E0616960E0C5E0CBEC5EF43
:105F80002FF0C3EF2FF0DBEF2FF00C50800A970FAC
:105F9000D8B0CDEF2FF0CFEF2FF0D1EF2FF094EF5F
:105FA0002FF0D89006320532043203320C3ED1EF86
:105FB0002FF0F3EF2FF01F0E0C64E1EF2FF0E3EF63
:105FC0002FF0EBEF2FF094EF2FF0D890033604363C
:105FD000053606360C060C50D8A4F1EF2FF0F3EF7F
:105FE0002FF0E5EF2FF00B50D8B4F9EF2FF0FBEFC7
:105FF0002FF003EF30F0061E051E041E036C000E8A
:1060000004220522062203C503F504C504F505C5CF
:1060100005F506C506F51200000E1C14246E000ED0
:106020001D14256E800E1E14266E7F0E1F14276E03
:106030002450251026102710D8A421EF30F023EF8C
:1060400030F02BEF30F0000E1C6E000E1D6E000EB7
:106050001E6E000E1F6E000E2014246E000E211402
:10606000256E800E2214266E7F0E2314276E245078
:10607000251026102710D8A440EF30F042EF30F062
:106080004AEF30F0000E206E000E216E000E226EE0
:10609000000E236E1FAE4FEF30F051EF30F05AEF8D
:1060A00030F01C6C1D1ED8B01D2A1E1ED8B01E2A32
:1060B000800E1F5623AE5FEF30F061EF30F06AEFD5
:1060C00030F0206C211ED8B0212A221ED8B0222AFE
:1060D000800E2356000E1C1A000E1D1A000E1E1AEA
:1060E000800E1F1A000E201A000E211A000E221A0E
:1060F000800E231A20501C5C21501D5822501E581F
:1061000023501F58D8B087EF30F089EF30F08CEF74
:1061100030F0D8908DEF30F0D8801200C2C50DF568
:10612000C3C50EF5C4C50FF5C5C510F503C50DF5FE
:1061300004C50EF505C50FF506C510F50DC507F527
:106140000EC508F50FC509F510C50AF5180EAEEF16
:1061500030F0D8900A32093208320732E82EA9EF1F
:1061600030F007500B6E0C6A0B500C10D8A4BBEF2C
:1061700030F0BDEF30F0DDEF30F0D8900D34076E29
:106180000E34086E0F34096E10340A6E0750081072
:1061900009100A10D8A4CFEF30F0D1EF30F0D7EFCC
:1061A00030F0000E046E020E036E0CEF31F0000EA4
:1061B000046E030E036E0CEF31F00B280C10D8A404
:1061C000E4EF30F0E6EF30F008EF31F00DC507F501
:1061D0000EC508F50FC509F510C50AF5090ED890CA
:1061E0000736083609360A36E82EEFEF30F007504A
:1061F000081009100A10D8B400EF31F003EF31F0A5
:10620000010E04EF31F0000E036E046A0CEF31F062
:10621000000E046E040E036E1200000E0A6E08BE1D
:1062200016EF31F014EF31F01EEF31F0081E071EAB
:10623000066C000E07220822010E0A6E05BE25EF2D
:1062400031F023EF31F02DEF31F0051E041E036C09
:10625000000E04220522010E0A1A000E0B6E000E1B
:106260000C6E000E0D6E065007100810D8B43BEFF0
:1062700031F03DEF31F06CEF31F0010E096E46EF79
:1062800031F0D890063607360836092A08AE4BEFAB
:1062900031F04DEF31F041EF31F0D8900B360C3644
:1062A0000D360650035C0750045808500558D8A016
:1062B0005CEF31F05EEF31F065EF31F00650035ED8
:1062C0000750045A0850055A0B80D89008320732FC
:1062D0000632092E4DEF31F00A50D8B472EF31F08A
:1062E00074EF31F07AEF31F00D1E0C1E0B6C000EC6
:1062F0000C220D220BC503F50CC504F50DC505F5E3
:106300001200000E116E000E106E09C5D9F40AC5F8
:10631000DAF4DEC4F6F4DDC4F7F4000EF86E08001B
:10632000F5502A0AD8A497EF31F099EF31F0CDEF6C
:1063300031F009C5D9F40AC5DAF4DE2A000EDD22EF
:106340000BC5D9F40CC5DAF4DFC40DF5020EDE2658
:10635000DFC40EF5000EDD220DC5D9F40EC5DAF44A
:10636000DEC410F5DDC411F5E3EF31F010C503F51F
:1063700011C504F5000E066E0A0E056EBEEC36F071
:106380000F500324106E000E0420116E09C5D9F4BD
:106390000AC5DAF4DE2A000EDD2209C5D9F40AC5E1
:1063A000DAF4DEC4F6F4DDC4F7F4000EF86E08008B
:1063B000F550D00F0F6E090E0F64E1EF31F0E3EFEF
:1063C00031F0B6EF31F010C509F511C50AF512002C
:1063D00007500810D8B4EFEF31F0F1EF31F0FAEFD9
:1063E00031F007500810D8A4F8EF31F0FAEF31F08F
:1063F000FFEF31F0055024EC37F04CEF32F020EE97
:106400000AF00750D9260850DA22DE50DE10D8B440
:106410000CEF32F00EEF32F029EF32F020EE0AF0FE
:106420000750D9260850DA2210EE03F00750E12673
:106430000850E222DE50E65CE650800A0D6EDE5027
:10644000800A0D58D8B027EF32F029EF32F04CEF28
:1064500032F020EE03F00750D9260850DA22DEC4CD
:1064600009F5DDC40AF507C5D9F408C5DAF4DEC4B8
:106470000BF5DDC40CF509500B24D96E0A500C2025
:10648000DA6E05C5DFF420EE03F00750D926085078
:10649000DA22DE2A000EDD221200530E5624D96EB7
:1064A000DA6A050EDA22DF6A0201B2A75AEF32F089
:1064B0005CEF32F071EF32F0530E5624D96EDA6A87
:1064C000050EDA22DF8202D871EF32F00500FA6E93
:1064D0000501A851FD6EA951FE6EAA51FF6EFA503A
:1064E00012000201B2A377EF32F079EF32F08EEFB3
:1064F00032F0530E5624D96EDA6A050EDA22DF84A2
:1065000002D88EEF32F00500FA6E0501A551FD6E3E
:10651000A651FE6EA751FF6EFA501200530E56247C
:10652000D96EDA6A050EDA22DF50D8B49AEF32F06B
:106530009CEF32F0ACEF32F002D8AAEF32F0050057
:10654000FA6E0501A251FD6EA351FE6EA451FF6EBD
:10655000FA501200AEEF32F06EEC36F05B50010AEA
:106560005B6E1200000E0301F96F000EFA6F000E51
:10657000D86F000EFB6F000ED96F000EDA6F000EA1
:10658000DB6F000EDC6F000EDF6F000EE06F000EA1
:10659000E36F000EE46F000EE56F000EE66F000E75
:1065A000E76F000EEA6F000EEB6F3C0EEC6F000E13
:1065B000EE6F000EEF6F000EF06F000EF16F000E29
:1065C000F26F000EF36F000EF46F100EF56F000EF9
:1065D000F66F000EF76F030EF86F000EFC6FAF94AE
:1065E000AF96B090000E036E000E046E000E056EA6
:1065F0001DEC37F0000E036E000E046E000E056EEB
:106600000FEC37F0000E036E000E046E000E056EE8
:1066100016EC37F0940E0301F36F1200A2909A0E5D
:10662000036E640E046E000E056EF3EC36F0A2925B
:10663000FA0E036E6B0E046E000E056EECEC36F077
:10664000000E0201A56F000EA66F000EA76F000ED0
:10665000A86F000EA96F000EAA6FB00EAB6F800E70
:10666000AC6F000EAD6FCF0EAE6F000EAF6F000EB1
:10667000B06F000EB16F000EB26F000EB36F6E0EF2
:10668000036E6E0E046E000E056E01EC37F06C0E9C
:10669000036E6E0E046E000E056EFAEC36F0620E9E
:1066A000036E6E0E046E000E056E08EC37F0000EE1
:1066B000516E000E5A6E000E596E010E576E000E8E
:1066C000566E000E556E000E526EA2801200000E25
:1066D00003140B6E000E04140C6E800E05140D6E68
:1066E0007F0E06140E6E0B500C100D100E10D8A459
:1066F0007CEF33F07EEF33F086EF33F0000E036E65
:10670000000E046E000E056E000E066E000E0714DD
:106710000B6E000E08140C6E800E09140D6E7F0EA9
:106720000A140E6E0B500C100D100E10D8A49BEF17
:1067300033F09DEF33F0A5EF33F0000E076E000E3F
:10674000086E000E096E000E0A6E075003180FE166
:10675000085004180CE10950051809E10A50061800
:10676000D8B4B5EF33F0B7EF33F0BAEF33F0D890D9
:10677000BBEF33F0D8801200000EC26E000EC16E67
:10678000000EBE6E000EC36E000EBF6E000EC06E19
:10679000070ECA6EF60ECB6EC668C768C868C968B1
:1067A0000401186910690869070E206FF50E286F3B
:1067B0000069000E196F000E296F000E216F000E88
:1067C000096F000E016F000E116F000E226F000E98
:1067D0002A6F000E026F000E0A6F000E126F000E7D
:1067E0001A6F03690B6913691B69070E236F2B6905
:1067F00004690C6914691C690F0E246F2C69200E42
:106800000201296F290E726F1200FAC401F5FBC450
:1068100002F5A2A20EEF34F010EF34F027EF34F0BF
:10682000B2A215EF34F017EF34F027EF34F002D8AE
:1068300025EF34F00500FA6E0501B451FD6EB55137
:10684000FE6EB651FF6EFA50120043EF34F0A2A074
:106850002CEF34F02EEF34F043EF34F0B2A033EFEE
:1068600034F035EF34F043EF34F002D843EF34F036
:106870000500FA6E0501B751FD6EB851FE6EB951B3
:10688000FF6EFA50120002C5FBF401C5FAF41100C4
:106890001ABE4DEF34F04FEF34F055EF34F019C518
:1068A0001EF51AC51FF559EF34F0000E1F6E000ECD
:1068B0001E6E000E1D6E000E1C6E6BEF34F0000E8F
:1068C000066E200E056E15C507F516C508F5E8EC31
:1068D00031F01C4A1D2A1E501C5C1D50800A1B6E84
:1068E0001F50800A1B58D8A078EF34F07AEF34F0AC
:1068F0005FEF34F017C50EF518C50FF515C510F587
:1069000016C511F5DBEC35F01200D1EC36F0D68E61
:106910002A0E036E000E046E2C0E056E000E066E1F
:10692000ABEC36F003C5BCF504C5BDF52E0E036E09
:10693000000E046E2C0E056E000E066EABEC36F0EB
:1069400003C5BAF504C5BBF5D68E000E5B6E5B04BD
:10695000D8A4ADEF34F0AFEF34F0B4EF34F0C39619
:10696000D4EC2DF0A7EF34F0C386A7EF34F00DEF91
:1069700000F006BEC8EF34F006500510041006E122
:106980000304D8B0C6EF34F0C8EF34F0E3EF34F0CE
:1069900003C507F504C508F505C509F506C50AF5DB
:1069A000071E081E091E0A1E072A000E08220922B9
:1069B0000A2207C503F508C504F509C505F50AC58A
:1069C00006F5EBEF34F003C503F504C504F505C582
:1069D00005F506C506F51200000E096E000E0A6EDA
:1069E000000E0B6E03A0F7EF34F0F9EF34F0FFEF79
:1069F00034F00650092607500A2208500B22D8907E
:106A0000063607360836D890053204320332035072
:106A100004100510D8A40FEF35F011EF35F0F2EFA8
:106A200034F009C503F50AC504F50BC505F51200D8
:106A300094C546F595C547F52DEF35F092C58CF513
:106A400093C58DF5460E05018E6F050E8F6F96C5A9
:106A500090F597C591F58AEC2BF046C5F6F447C53D
:106A6000F7F4000EF86E0800F5500009D8A43BEFCB
:106A700035F03DEF35F01EEF35F0000E0501936F58
:106A8000000E926F1200036E5750D8B44AEF35F0E3
:106A90004CEF35F044EF35F0A2B251EF35F053EF43
:106AA00035F057EF35F003C5A3F26CEF35F0A29245
:106AB000580E5A24D96EDA6A050EDA2203C5DFF4BD
:106AC0005A2A5A50D8B467EF35F069EF35F06BEFBA
:106AD00035F0000E5A6E5706A282120005C50CF55D
:106AE00006C50DF503C50AF504C50BF588EF35F0AD
:106AF0000CC5D9F40DC5DAF4DF50096E0C4A0D2A25
:106B00000AC5D9F40BC5DAF409C5DFF40A4A0B2A21
:106B10000706D8A00806072806E10828D8A493EF9E
:106B200035F095EF35F078EF35F01200000E301AA1
:106B3000000E311A000E321A800E331A2CC51CF5C5
:106B40002DC51DF52EC51EF52FC51FF530C520F529
:106B500031C521F532C522F533C523F548EC25F0C2
:106B60001CC52CF51DC52DF51EC52EF51FC52FF511
:106B7000120005C507F506C508F503C509F504C5E6
:106B80000AF507C5F6F408C5F7F4074A082A000E07
:106B9000F86E09C5D9F40AC5DAF4094A0A2A0800C8
:106BA000F5C4DFF4DF50D8A4D8EF35F0DAEF35F0D4
:106BB000C1EF35F01200000E146E000E136EECEFF4
:106BC00035F012C505F5066A10C507F511C508F5BB
:106BD000E8EC31F0134A142A13500E24D96E1450E5
:106BE0000F20DA6EDF50126E1250D8A4FAEF35F093
:106BF000FCEF35F0E1EF35F012005750D8A403EF69
:106C000036F005EF36F01CEF36F0580E5924D96EE9
:106C1000DA6A050EDA22DF500201A36F592A5950B1
:106C2000D8B415EF36F017EF36F019EF36F0000E46
:106C3000596E572A1DEF36F0A292120001EE00F2B3
:106C4000500EEE6AE806FDE101EEBEF1130EEE6AAB
:106C5000E806FDE101EE4EF10E0EEE6AE806FDE1FA
:106C60000401080E5D6F000E5E6F000E5F6F000185
:106C700085EF34F00350041005100610D8B443EF2C
:106C800036F045EF36F04DEF36F0000E031A000EE9
:106C9000041A000E051A800E061A03C503F504C572
:106CA00004F505C505F506C506F51200076E07C50E
:106CB000ECF30301F38FF39DF381F3B162EF36F050
:106CC00064EF36F05DEF36F0EB51066E056AEA517F
:106CD0000524036E000E0620046E1200540E562486
:106CE000D96EDA6A050EDA22A1C2DFF4562A5650AE
:106CF000D8B47DEF36F07FEF36F081EF36F0000E3E
:106D0000566E522A1200000E0001606F000E616F75
:106D1000000E626F000E636F000E646F000E656FF1
:106D2000000E666F000E676F000E686F12009A0EFD
:106D3000486E050E496E000E0501926F000E936FAE
:106D400098C594F599C595F5480E966F050E976F01
:106D500018EC35F0120005C5F8F404C5F7F403C5C6
:106D6000F6F40900F5C409F50800F5C40AF50A505F
:106D7000076E0950036E07C504F5120003500502A3
:106D8000F3C407F5F4C408F503500602F3500826CF
:106D900004500502F350082607C503F508C504F59D
:106DA000120034EC37F083EC36F0BCEC33F0B2EC8C
:106DB00032F0E0EC36F029EC37F00EEC33F0120054
:106DC000600E0001AD6F000EAF6F000EB36F030ECB
:106DD000B16F000EB06F120003C5B4F504C5B5F570
:106DE00005C5B6F5120003C5B7F504C5B8F505C568
:106DF000B9F5120003C5A5F504C5A6F505C5A7F5A7
:106E0000120003C5A8F504C5A9F505C5AAF5120029
:106E100003C5A2F504C5A3F505C5A4F5120003C575
:106E2000AEF504C5AFF505C5B0F5120003C5ABF569
:106E300004C5ACF505C5ADF5120003C5B1F504C533
:106E4000B2F505C5B3F51200046E045043EC35F0FD
:106E50001200B20E0301D76F12003B0E0301EC6F5C
:106E600012006EEC36F01200D69A120012001200D8
:020000040020DA
:10000000FF0FFF0FFF0FFF0FFF0FFF0FFF0FFF0F80
:10001000FF0FFF0FFF0FFF0FFF0FFF0FFF0FFF0F70
:10002000FF0FFF0FFF0FFF0FFF0FFF0FFF0FFF0F60
:10003000FF0FFF0FFF0FFF0FFF0FFF0FFF0FFF0F50
:020000040030CA
:10000000ECEFF7FF9FFFFFFFFFFFFFFFFFFFFFFF8B
:10001000FFFFFFFFFFFFFFFFFFFFFFFFFFFFFFFFF0
:04002000FFFFFFFFE0
:00000001FF
